:100000000C9462000C948A000C948A000C948A0070
:100010000C948A000C948A000C948A000C948A0038
:100020000C948A000C948A000C948A000C948A0028
:100030000C948A000C948A000C948A000C948A0018
:100040000C949B040C948A000C948A000C948A00F3
:100050000C948A000C948A000C948A000C948A00F8
:100060000C948A000C948A00000000080002010031
:100070000003040700000000000000000102040863
:100080001020408001020408102001020408102002
:10009000040404040404040402020202020203032E
:1000A00003030303000000002300260029000000D2
:1000B0000000250028002B0000000000240027007D
:1000C0002A00C00111241FBECFEFD8E0DEBFCDBF94
:1000D00011E0A0E0B1E0E4EBF4E102C005900D9284
:1000E000A034B107D9F721E0A0E4B1E001C01D922E
:1000F000A737B207E1F710E0C4ECD0E004C02297C4
:10010000FE010E942609C23CD107C9F70E9443079D
:100110000C94580A0C94000061E08DE00E94AB053D
:1001200060E08CE00E94AB058AE591E00E948D03BF
:100130008AE591E00E949A0320E044E064E182E4D1
:1001400091E00C949102CF92DF92EF92FF9260E0E7
:100150008DE00E94E40561E08DE00E94E4058AE004
:1001600090E00E943C0560E08DE00E94E4058CE098
:100170000E941A06892BD9F30E94F1046B017C01BD
:100180008CE00E941A060197D9F30E94F1046C19C1
:100190007D09882777FD8095982F0E94EB072BE635
:1001A00039E94CE85CE30E94770820E030E040E069
:1001B0005FE30E9454070E94B807CB01FF90EF90C5
:1001C000DF90CF900895FF920F931F93CF93DF930B
:1001D000F42E23E0880F991F2A95E1F70E94EE087C
:1001E0008B01C0E0D0E040E0C017D1071CF06F2DBC
:1001F00080E002C060E08F2D0E9492049B01AC0160
:10020000BE018AE591E00E944C042196C830D105D8
:1002100051F78AE591E0DF91CF911F910F91FF9007
:100220000C949A030E94E50470934101609340018D
:1002300040E060E082E491E00E94770268E071E0D3
:1002400082E491E00E94810641E060E082E491E076
:100250000E9477026FE071E082E491E00E948106E3
:1002600042E060E082E491E00E9477026AE171E09E
:1002700082E491E00C94810682E491E00E94700295
:100280006BE271E082E491E00E94810641E060E06F
:1002900082E491E00E9477026FE271E082E491E0F3
:1002A0000E9481060E94E504AB01BC012AE030E017
:1002B00082E491E00E94350742E060E082E491E050
:1002C0000E94770260914001709141014AE050E044
:1002D00082E491E00C942D070F931F93CF93DF934B
:1002E0000E94A300EC01883291059CF40E94E50471
:1002F0000091400110914101222717FD2095322FD6
:10030000601B710B820B930B61367A4E8105910550
:10031000A0F50E94E50400914001109141012227BF
:1003200017FD2095322F601B710B820B930B6133ED
:1003300075478105910510F00E943C01409107012D
:1003400066E470E0CE010E94E30090910601809186
:100350000701890F80930701882311F0833619F470
:1003600091959093060168E270E080E090E0DF9163
:10037000CF911F910F910C9414050E941201C9CFC7
:10038000CF92EF920F9323E042E068E070E08AE5BD
:1003900091E00E94550333E0C32E44E0E42E05E0D3
:1003A00026E04AE06BE082E491E00E942F030F9187
:1003B000EF90CF900895CF93DF93EC0160E08E81B2
:1003C0000E94E40581E090E00E943C0561E08E819E
:1003D0000E94E40581E090E00E943C0560E08E818F
:1003E0000E94E40584E690E0DF91CF910C943C05F7
:1003F000EF92FF920F931F93CF93DF938C01C0E096
:10040000D0E0E62EF12CB7010C2E02C07595679551
:100410000A94E2F76170F801EC0FFD1F87810E94DA
:10042000E4052196C430D10571F7C801DF91CF9161
:100430001F910F91FF90EF900C94DB01EF92FF92D0
:100440000F931F93CF93DF938C01C0E0D0E0E62E93
:10045000F12CB7010C2E02C0759567950A94E2F74E
:100460006170F801EC0FFD1F87810E94E405219661
:10047000C830D10571F7C801DF91CF911F910F915D
:10048000FF90EF900C94DB011F93CF93DF93EC016F
:10049000162F642F8C810E94E4058D818F3F19F007
:1004A00060E00E94E4058F85612F84FF06C0CE01C5
:1004B000DF91CF911F910C941E0270E084E075953E
:1004C00067958A95E1F7CE010E94F801612FCE0170
:1004D000DF91CF911F910C94F80140E00C944402FD
:1004E00061E00E946D0280ED97E00C943C05443081
:1004F00008F043E0FC012389421710F04FEF420F50
:10050000FC01E40FF11D2489260F2068622F0C9452
:100510006D02FC016089262F2460208B6C600C9496
:100520006D020F931F93CF93DF93EC01423018F0CD
:100530008F8588608F874B8B1C8A80E48D8B6E8BB8
:1005400070E0605C7F4F6F8B222329F0413019F4FB
:100550008F8584608F8761E08C810E94AB058D81DF
:100560008F3F19F061E00E94AB0561E08E810E942F
:10057000AB0500E010E08F8584FF03C088E090E0C9
:1005800002C084E090E00817190754F4FE01E00F60
:10059000F11F61E087810E94AB050F5F1F4FEBCF1A
:1005A00080E593EC0E943C0560E08C810E94E405AC
:1005B00060E08E810E94E4058D818F3F19F060E03C
:1005C0000E94E4056F8564FD1DC063E0CE010E94BA
:1005D000F80184E991E10E943C0563E0CE010E94AC
:1005E000F80184E991E10E943C0563E0CE010E949C
:1005F000F80186E990E00E943C0562E0CE010E948D
:10060000F80116C06062CE010E946D0284E991E19A
:100610000E943C056F856062CE010E946D0286E9F2
:1006200090E00E943C056F856062CE010E946D02E1
:100630006F856062CE010E946D0284E0888BCE01DE
:100640000E948902CE010E94700282E0898B66E0DE
:10065000CE01DF91CF911F910F910C946D02CF923B
:10066000EF920F93FC01138212828BE391E091834E
:10067000808364838FEF8583468327830087E186A9
:10068000C2861386148615861686178620E041E0FA
:1006900060E1CF010F91EF90CF900C94910241E077
:1006A0000E94440281E090E008950F931F93CF933E
:1006B000DF93EC01798368838B01000F111F060F14
:1006C000171F1B830A834C832D8350E0FA01E057E8
:1006D000FF4FE491F0E0EE0FFF1FE255FF4F8591D1
:1006E00094919E878D87FA01E458FF4F44914F877C
:1006F000C8010E942A0998878F83009749F0A801B2
:1007000060E070E0DF91CF911F910F910C94510A3E
:10071000DF91CF911F910F910895CF93DF93EC015B
:1007200061E08C810E94AB0560E08C81DF91CF910C
:100730000C94E405CF92DF92EF92FF920F931F93F8
:10074000CF93DF93CDB7DEB729970FB6F894DEBF0E
:100750000FBECDBF8C01DC0117968D919C9118972F
:10076000892B09F48AC00E94F104F801C184D28463
:10077000E384F4846C197D098E099F096233710545
:100780008105910580F3F894828193819A8389830E
:100790000780F085E02D7F01BFEFEB1AFB0A808117
:1007A0008987F80195810584F685E02DD8011F968B
:1007B0008C9191FF28C09081982B9887908180958B
:1007C00089238F838F818E8388E08D832885398567
:1007D0004D815E816F8189819A81D701208337FDA8
:1007E000522F4A955083562F39F0331F00C0000016
:1007F0006083000000C0F2CF48E03D9160830000BC
:10080000019761F732C09081982B988790818095ED
:1008100089238F838F818C8388E08B83288539851A
:100820004B815C816F8189819A81D701208337FD5B
:10083000522F00C000C0508300C000C000C000C0E4
:1008400000C060830000562F4A9541F0331F00001E
:1008500000C000C000C000C000C0E8CF48E03D912B
:1008600000C0608300C0019709F778940E94F104EA
:10087000F801618772878387948729960FB6F89469
:10088000DEBF0FBECDBFDF91CF911F910F91FF90C3
:10089000EF90DF90CF900895CF92DF92EF92FF928A
:1008A0000F931F93CF93DF93FC0180819181681791
:1008B000790778F5CA01AA27BB27182FC32ED42E93
:1008C000E52EFF24DC2D022FC681CC2361F08C9F06
:1008D000C0011124192FCC9E60011124DD2D2C9F05
:1008E00090011124032FCB01880F991F860F971FAA
:1008F000A781B085A80FB91F8581FD01329680FFC1
:1009000004C0DC9311961C9303C01C931196DC93D6
:100910000083DF91CF911F910F91FF90EF90DF90B7
:10092000CF900895962F50E060E070E0592B682B2F
:10093000CB01BA0108951F920F920FB60F921124A6
:100940002F933F938F939F93AF93BF9380916B01AE
:1009500090916C01A0916D01B0916E0130916A018E
:1009600023E0230F2D3720F40196A11DB11D05C0F2
:1009700026E8230F0296A11DB11D20936A018093E2
:100980006B0190936C01A0936D01B0936E01809107
:100990006F0190917001A0917101B0917201019667
:1009A000A11DB11D80936F0190937001A0937101FF
:1009B000B0937201BF91AF919F918F913F912F9111
:1009C0000F900FBE0F901F9018952FB7F89460915D
:1009D0006B0170916C0180916D0190916E012FBF40
:1009E00008953FB7F89480916F0190917001A091A4
:1009F0007101B091720126B5A89B05C02F3F19F077
:100A00000196A11DB11D3FBF6627782F892F9A2F10
:100A1000620F711D811D911D42E0660F771F881FB7
:100A2000991F4A95D1F70895CF92DF92EF92FF92E6
:100A3000CF93DF936B017C010E94F104EB01C114A1
:100A4000D104E104F10489F00E9452070E94F104EC
:100A50006C1B7D0B683E734090F381E0C81AD1088F
:100A6000E108F108C851DC4FEACFDF91CF91FF9048
:100A7000EF90DF90CF9008958230910538F0880F85
:100A8000991F880F991F05970197F1F7089578949A
:100A900084B5826084BD84B5816084BD85B5826083
:100AA00085BD85B5816085BDEEE6F0E08081816021
:100AB0008083E1E8F0E01082808182608083808121
:100AC00081608083E0E8F0E0808181608083E1EBF9
:100AD000F0E0808184608083E0EBF0E080818160E1
:100AE0008083EAE7F0E08081846080838081826097
:100AF0008083808181608083808180688083109280
:100B0000C1000895833081F028F4813099F082305B
:100B1000A1F008958730A9F08830B9F08430D1F47D
:100B2000809180008F7D03C0809180008F778093BB
:100B30008000089584B58F7702C084B58F7D84BD11
:100B400008958091B0008F7703C08091B0008F7DB1
:100B50008093B0000895CF93DF9390E0FC01E458B8
:100B6000FF4F2491FC01E057FF4F8491882349F106
:100B700090E0880F991FFC01E854FF4FA591B491B4
:100B800082559F4FFC01C591D4919FB7611108C058
:100B9000F8948C91209582238C93888182230AC0BB
:100BA000623051F4F8948C91322F309583238C93DA
:100BB0008881822B888304C0F8948C91822B8C933B
:100BC0009FBFDF91CF9108950F931F93CF93DF9332
:100BD0001F92CDB7DEB7282F30E0F901E859FF4F5B
:100BE0008491F901E458FF4F1491F901E057FF4F48
:100BF00004910023C9F0882321F069830E948205B3
:100C00006981E02FF0E0EE0FFF1FE255FF4FA59145
:100C1000B4919FB7F8948C91611103C01095812312
:100C200001C0812B8C939FBF0F90DF91CF911F91BB
:100C30000F910895CF93DF93282F30E0F901E85901
:100C4000FF4F8491F901E458FF4FD491F901E05727
:100C5000FF4FC491CC2391F081110E948205EC2FAB
:100C6000F0E0EE0FFF1FEC55FF4FA591B4912C91D2
:100C70002D2381E090E021F480E002C080E090E04C
:100C8000DF91CF910895CF92DF92EF92FF920F9371
:100C90001F93CF93DF937C016A01EB0100E010E02A
:100CA0000C151D0571F06991D701ED91FC91019032
:100CB000F081E02DC7010995892B19F00F5F1F4FB7
:100CC000EFCFC801DF91CF911F910F91FF90EF906F
:100CD000DF90CF9008956115710581F0DB010D90D3
:100CE0000020E9F7AD0141505109461B570BDC01CB
:100CF000ED91FC910280F381E02D099480E090E079
:100D000008950C946B06DC01ED91FC910190F0814B
:100D1000E02D09948F929F92AF92BF92CF92DF9273
:100D2000EF92FF920F931F93CF93DF93CDB7DEB770
:100D3000A1970FB6F894DEBF0FBECDBF7C01C42EC5
:100D4000E52FCB01D22E19A221E02D1510F02AE0BB
:100D5000D22E8E010F5D1F4F8D2C912CA12CB12C0A
:100D60006C2D7E2FA50194010E9402098C2DD29E2C
:100D700080191124015011098A3014F4805D01C0DA
:100D8000895CF8018083211531054105510521F069
:100D9000C22EE32FCA01E4CFB801C7010E946B063F
:100DA000A1960FB6F894DEBF0FBECDBFDF91CF91F5
:100DB0001F910F91FF90EF90DF90CF90BF90AF9079
:100DC0009F908F900895CF92DF92EF92FF920F93B2
:100DD0001F93CF93DF93EC016A017B01211531054D
:100DE00079F4E881F9810190F081E02D642FDF91A1
:100DF000CF911F910F91FF90EF90DF90CF900994CA
:100E00002A303105E9F477FF1AC06DE20E948306AB
:100E10008C0144275527BA014C195D096E097F09D9
:100E20002AE0CE010E948A06800F911FDF91CF91A8
:100E30001F910F91FF90EF90DF90CF9008952AE0DF
:100E4000B701A601CE01DF91CF911F910F91FF90C5
:100E5000EF90DF90CF900C948A069A01AB01662741
:100E600057FD6095762F0C94E3062115310541F46A
:100E7000DC01ED91FC910190F081E02D642F09944B
:100E80000C948A0608950E9447050E9442070E941A
:100E90008C00C0E0D0E00E946C012097E1F30E943A
:100EA0000000F9CF08955058BB27AA270ED0E5C0FF
:100EB000D6D030F0DBD020F031F49F3F11F41EF497
:100EC000CBC00EF4E095E7FBC1C0E92FE7D080F37B
:100ED000BA17620773078407950718F071F49EF537
:100EE000FFC00EF4E0950B2EBA2FA02D0B01B90117
:100EF00090010C01CA01A0011124FF27591B99F090
:100F0000593F50F4503E68F11A16F040A22F232F9B
:100F1000342F4427585FF3CF469537952795A795EB
:100F2000F0405395C9F77EF41F16BA0B620B730B92
:100F3000840BBAF09150A1F0FF0FBB1F661F771F03
:100F4000881FC2F70EC0BA0F621F731F841F48F4B8
:100F5000879577956795B795F7959E3F08F0B3CF3E
:100F60009395880F08F09927EE0F97958795089528
:100F700004D06894B111B5C0089598D088F09F57F7
:100F800090F0B92F9927B751A0F0D1F0660F771FD5
:100F9000881F991F1AF0BA95C9F712C0B13081F0B5
:100FA0009FD0B1E008959CC0672F782F8827B85F45
:100FB00039F0B93FCCF3869577956795B395D9F716
:100FC0003EF490958095709561957F4F8F4F9F4F20
:100FD0000895E89409C097FB3EF49095809570952C
:100FE00061957F4F8F4F9F4F9923A9F0F92F96E975
:100FF000BB279395F695879577956795B795F111EA
:10100000F8CFFAF4BB0F11F460FF1BC06F5F7F4F86
:101010008F4F9F4F16C0882311F096E911C0772398
:1010200021F09EE8872F762F05C0662371F096E8A1
:10103000862F70E060E02AF09A95660F771F881F70
:10104000DAF7880F9695879597F9089597F99F672E
:1010500080E870E060E008959FEF80EC0895002440
:101060000A941616170618060906089500240A940D
:1010700012161306140605060895092E0394000C93
:1010800011F4882352F0BB0F40F4BF2B11F460FF22
:1010900004C06F5F7F4F8F4F9F4F089557FD90584B
:1010A000440F551F59F05F3F71F04795880F97FB2C
:1010B000991F61F09F3F79F08795089512161306E6
:1010C0001406551FF2CF4695F1DF08C01616170615
:1010D0001806991FF1CF869571056105089408954A
:1010E000E894BB2766277727CB0197F908950BD0A3
:1010F000C4CFB5DF28F0BADF18F0952309F0A6CFEA
:10110000ABCF1124EECFCADFA0F3959FD1F3950F9B
:1011100050E0551F629FF001729FBB27F00DB11D7B
:10112000639FAA27F00DB11DAA1F649F6627B00D0B
:10113000A11D661F829F2227B00DA11D621F739FF4
:10114000B00DA11D621F839FA00D611D221F749F02
:101150003327A00D611D231F849F600D211D822F49
:10116000762F6A2F11249F5750408AF0E1F0882390
:101170004AF0EE0FFF1FBB1F661F771F881F91509D
:101180005040A9F79E3F510570F060CFAACF5F3F56
:10119000ECF3983EDCF3869577956795B795F795D0
:1011A000E7959F5FC1F7FE2B880F911D9695879558
:1011B00097F90895AA1BBB1B51E107C0AA1FBB1FCB
:1011C000A617B70710F0A61BB70B881F991F5A95D3
:1011D000A9F780959095BC01CD01089597FB072E46
:1011E00016F4009407D077FD09D00E94DA0807FCB6
:1011F00005D03EF4909581959F4F08957095619527
:101200007F4F0895A1E21A2EAA1BBB1BFD010DC042
:10121000AA1FBB1FEE1FFF1FA217B307E407F507A6
:1012200020F0A21BB30BE40BF50B661F771F881F82
:10123000991F1A9469F760957095809590959B0118
:10124000AC01BD01CF010895EE0FFF1F0590F49191
:10125000E02D0994CF93DF938230910510F482E062
:1012600090E0E0917501F091760120E030E0A0E09F
:10127000B0E0309739F14081518148175907B8F0F3
:101280004817590771F482819381109729F01396BA
:101290009C938E9312972CC0909376018093750146
:1012A00027C02115310531F04217530718F0A90165
:1012B000DB0101C0EF019A01BD01DF010280F38172
:1012C000E02DD7CF21153105F9F0281B390B24303B
:1012D000310580F48A819B816115710521F0FB0144
:1012E0009383828304C09093760180937501FE01FD
:1012F000329644C0FE01E20FF31F81939193225076
:101300003109398328833AC02091730130917401E7
:10131000232B41F420910201309103013093740199
:1013200020937301209100013091010121153105B5
:1013300041F42DB73EB74091040150910501241BA3
:10134000350BE0917301F0917401E217F307A0F4FB
:101350002E1B3F0B2817390778F0AC014E5F5F4F0B
:101360002417350748F04E0F5F1F509374014093C8
:1013700073018193919302C0E0E0F0E0CF01DF912F
:10138000CF910895CF93DF93009709F487C0FC01B4
:10139000329713821282C0917501D0917601209705
:1013A00081F420813181280F391F80917301909140
:1013B00074018217930779F5F0937401E093730138
:1013C0006DC0DE0120E030E0AE17BF0750F412968A
:1013D0004D915C9113979D014115510509F1DA0179
:1013E000F3CFB383A28340815181840F951F8A1765
:1013F0009B0771F48D919C911197840F951F029614
:101400009183808312968D919C911397938382830D
:101410002115310529F4F0937601E09375013EC062
:10142000D9011396FC93EE9312974D915D91A40F01
:10143000B51FEA17FB0779F480819181840F951F0E
:101440000296D90111969C938E9382819381139673
:101450009C938E931297E0E0F0E08A819B81009745
:1014600019F0FE01EC01F9CFCE01029628813981F5
:10147000820F931F2091730130917401281739074F
:1014800069F4309729F4109276011092750102C028
:1014900013821282D0937401C0937301DF91CF91B4
:1014A0000895DC0101C06D9341505040E0F708956C
:0414B000F894FFCFDE
:1014B400000077018000031548454C4C4F2100493A
:1014C400276D204A756C69616E00405265616C6CD1
:1014D4007942696753686F65554B004F6666004DE6
:1014E400696C6C69732000000000004F0343060020
:00000001FF
