:100000000C945D000C9485000C9485000C94850084
:100010000C9485000C9485000C9485000C9485004C
:100020000C9485000C9485000C9485000C949B0125
:100030000C9485000C9485000C9485000C9485002C
:100040000C9409050C9485000C9485000C94850093
:100050000C9485000C9485000C9485000C9485000C
:100060000C9485000C94850000000008000201003B
:100070000003040700000000000000000102040863
:100080001020408001020408102001020408102002
:10009000040404040404040402020202020203032E
:1000A0000303030300000000250028002B000000CC
:1000B0000000240027002A00940011241FBECFEF67
:1000C000D8E0DEBFCDBF11E0A0E0B1E0E0ECF0E1B0
:1000D00002C005900D92AE31B107D9F721E0AEE133
:1000E000B1E001C01D92A137B207E1F710E0CAEB01
:1000F000D0E004C02297FE010E944B08C83BD10704
:10010000C9F70E94D1070C945E080C94000020E00F
:1001100044E064E18AE291E00E9445046AE070E014
:1001200087E291E00C94F102CF92EF920F9382E07C
:10013000C82E93E0E92E04E025E04BE06CE08AE273
:1001400091E00E94E30487E291E00E94570284E27A
:1001500091E00E94570281E291E00E9457028EE1F5
:1001600091E00F91EF90CF900C9457022F923F9215
:100170004F925F926F927F928F929F92AF92BF92B7
:10018000CF92DF92EF92FF920F931F93CF93DF9363
:100190004CE0442E41E0542EC4E0D1E0812C912C5F
:1001A00055E0252E312CF2018081F2E04F0E511CDA
:1001B0000E94E4053C01BC01882777FD8095982FBB
:1001C0001F921F921F9225E02F932BEFA22EBB248C
:1001D000BA94CB2CDB2CEE24EA9413E0F12E00E051
:1001E00010E020E030E0A9010E9489076B017C014A
:1001F0008B01482D60E08AE291E00E942B044AE0E6
:1002000050E0B4018AE291E00E948107482D62E04B
:100210008AE291E00E942B044AE050E0B3018AE2B6
:1002200091E00E94810760E28AE291E00E9403056A
:10023000482D68E08AE291E00E942B044AE050E0F9
:10024000B6018AE291E00E94810760E28AE291E0D1
:100250000E940305482D6EE08AE291E00E942B0483
:10026000688179814AE050E08AE291E00E9481074A
:1002700060E28AE291E00E9403050F900F900F90D8
:100280000F908EEFC8168FEFD806A4F4888199815D
:10029000EBEFCE16EFEFDE0619F021E030E002C002
:1002A00022E030E0821B930B85309105CCF439823B
:1002B000288218C003301105ACF02881398105303F
:1002C000110519F482E090E002C081E090E0820F15
:1002D000931F99838883803B910524F08FEA90E0F7
:1002E000998388839FEF891A990A2296E4E08E16F3
:1002F000910409F058CF609104017091050187E2E3
:1003000091E00E942A0364E170E080E090E0DF91D8
:10031000CF911F910F91FF90EF90DF90CF90BF9002
:10032000AF909F908F907F906F905F904F903F9095
:100330002F900C9476051F920F920FB60F921124F6
:100340002F933F934F935F936F937F938F939F93DD
:10035000AF93BF93EF93FF938091430187FF05C055
:1003600010928500109284001AC020914301332717
:1003700027FD30958091420190E0281739077CF4E1
:1003800080914301992787FD9095FC01EE0FFF1F97
:10039000E80FF91FEC5BFE4F808186FD15C0809150
:1003A00043018F5F8093430120914301332727FD51
:1003B00030958091420190E028173907BCF4809174
:1003C00043018C305CF112C080914301992787FD75
:1003D0009095FC01EE0FFF1FE80FF91FEC5BFE4F3D
:1003E000808160E08F730E946306D9CF8091840082
:1003F00090918500049680349C4918F480E49CE92F
:1004000005C08091840090918500049690938900A6
:10041000809388008FEF8093430138C0209184003F
:100420003091850080914301992787FD9095FC01CB
:10043000EE0FFF1FE80FF91FEC5BFE4F81819281E9
:10044000820F931F909389008093880080914301CD
:10045000992787FD9095FC01EE0FFF1FE80FF91F0C
:10046000EC5BFE4F808186FF11C08091430199278C
:1004700087FD9095FC01EE0FFF1FE80FF91FEC5B65
:10048000FE4F808161E08F730E946306FF91EF91C0
:10049000BF91AF919F918F917F916F915F914F919C
:1004A0003F912F910F900FBE0F901F9018952091A4
:1004B00042012C30A0F431E0320F30934201FC01B4
:1004C0002083822F90E0FC01EE0FFF1FE80FF91F41
:1004D000EC5BFE4F88EB9BE09283818308952FEFC6
:1004E000FC0120830895DF92EF92FF920F931F93F8
:1004F000CF93DF93EC01D62E7A01890188818C306D
:1005000008F066C061E08D2D0E942A068881A82F20
:10051000B0E0FD01EE0FFF1FEA0FFB1FEC5BFE4F8B
:100520002D2D2F739081907C922B908360E272E04E
:100530006E197F0977FF02C06D5F7F4F75956795D4
:1005400075956795698340E659E0401B510B57FF4D
:1005500002C04D5F5F4F55954795559547954A8326
:100560006CE00E94F1079CE0899FB001112420E01B
:1005700030E0A901460F571FFA01EE0FFF1FE40FED
:10058000F51FEC5BFE4F908196FD16C02F5F3F4F2D
:100590002C30310571F781110FC01092800082E07C
:1005A000809381001092850010928400B19A80910E
:1005B0006F00826080936F00888190E0FC01EE0FF5
:1005C000FF1FE80FF91FEC5BFE4F80818064808382
:1005D0008881DF91CF911F910F91FF90EF90DF9075
:1005E000089520E639E040E252E00C947302FC01E9
:1005F00080818C3070F5918128E830E0291B310929
:1006000097FD3395220F331F220F331F6217730795
:100610007CF0928128E532E0291B310997FD339562
:10062000220F331F220F331F621773070CF49B0135
:1006300022503109220F331F4FB7F89490E0FC018C
:10064000EE0FFF1FE80FF91FEC5BFE4F3283218393
:100650004FBF08954F925F926F927F92AF92BF9279
:10066000CF92DF92EF92FF920F931F93CF93DF937E
:10067000EC01603282E078070CF040C077FD06C0E4
:10068000653B71052CF064EB70E002C060E070E047
:10069000898128E830E0281B310987FD3395220F36
:1006A000331F220F331F5901CC24B7FCC094DC2C1C
:1006B000882777FD8095982F2A8148E552E0421BD4
:1006C000510927FD5395440F551F440F551F2A010B
:1006D000662457FC6094762C7F926F925F924F92C3
:1006E00014EBE12EF12C00E010E020E030E0A90155
:1006F0000E9489070F900F900F900F90CE01DF910D
:10070000CF911F910F91FF90EF90DF90CF90BF900E
:10071000AF907F906F905F904F900C94F702CF93C3
:10072000DF93EC0160E08E810E94630681E090E03F
:100730000E949E0561E08E810E94630681E090E048
:100740000E949E0560E08E810E94630684E690E030
:10075000DF91CF910C949E05EF92FF920F931F9320
:10076000CF93DF938C01C0E0D0E0E62EF12CB701EF
:100770000C2E02C0759567950A94E2F76170F80136
:10078000EC0FFD1F87810E9463062196C430D105BE
:1007900071F7C801DF91CF911F910F91FF90EF90FA
:1007A0000C948F03EF92FF920F931F93CF93DF93DD
:1007B0008C01C0E0D0E0E62EF12CB7010C2E02C077
:1007C000759567950A94E2F76170F801EC0FFD1FCB
:1007D00087810E9463062196C830D10571F7C80150
:1007E000DF91CF911F910F91FF90EF900C948F03A9
:1007F0001F93CF93DF93EC01162F642F8C810E94FF
:1008000063068D818F3F19F060E00E9463068F853B
:10081000612F84FF06C0CE01DF91CF911F910C9410
:10082000D20370E084E0759567958A95E1F7CE0173
:100830000E94AC03612FCE01DF91CF911F910C94E8
:10084000AC0340E00C94F80361E00E94210480EDC9
:1008500097E00C949E05443008F043E0FC012389A6
:10086000421710F04FEF420FFC01E40FF11D2489F5
:10087000260F2068622F0C942104FC016089262F2A
:100880002460208B6C600C9421040F931F93CF93F2
:10089000DF93EC01423018F08F8588608F874B8B97
:1008A0001C8A80E48D8B6E8B70E0605C7F4F6F8B59
:1008B000222329F0413019F48F8584608F8761E00D
:1008C0008C810E942A068D818F3F19F061E00E9481
:1008D0002A0661E08E810E942A0600E010E08F85E2
:1008E00084FF03C088E090E002C084E090E0081735
:1008F000190754F4FE01E00FF11F61E087810E94A7
:100900002A060F5F1F4FEBCF80E593EC0E949E05F8
:1009100060E08C810E94630660E08E810E94630625
:100920008D818F3F19F060E00E9463066F8564FD42
:100930001DC063E0CE010E94AC0384E991E10E94F6
:100940009E0563E0CE010E94AC0384E991E10E9420
:100950009E0563E0CE010E94AC0386E990E00E9410
:100960009E0562E0CE010E94AC0316C06062CE011B
:100970000E94210484E991E10E949E056F856062D6
:10098000CE010E94210486E990E00E949E056F85B9
:100990006062CE010E9421046F856062CE010E94D8
:1009A000210484E0888BCE010E943D04CE010E9488
:1009B000240482E0898B66E0CE01DF91CF911F9104
:1009C0000F910C942104CF92EF920F93FC011382AC
:1009D000128289E191E09183808364838FEF858324
:1009E000468327830087E186C28613861486158690
:1009F0001686178620E041E060E1CF010F91EF906D
:100A0000CF900C94450441E00E94F80381E090E00F
:100A100008951F920F920FB60F9211242F933F93B8
:100A20008F939F93AF93BF938091690190916A01D7
:100A3000A0916B01B0916C013091680123E0230F0C
:100A40002D3720F40196A11DB11D05C026E8230F06
:100A50000296A11DB11D20936801809369019093B6
:100A60006A01A0936B01B0936C0180916D0190912C
:100A70006E01A0916F01B09170010196A11DB11D91
:100A800080936D0190936E01A0936F01B0937001FC
:100A9000BF91AF919F918F913F912F910F900FBE7A
:100AA0000F901F9018953FB7F89480916D01909129
:100AB0006E01A0916F01B091700126B5A89B05C091
:100AC0002F3F19F00196A11DB11D3FBF6627782F5A
:100AD000892F9A2F620F711D811D911D42E0660FB3
:100AE000771F881F991F4A95D1F70895CF92DF92FB
:100AF000EF92FF92CF93DF936B017C010E9453052D
:100B0000EB01C114D104E104F10489F00E94E00773
:100B10000E9453056C1B7D0B683E734090F381E08F
:100B2000C81AD108E108F108C851DC4FEACFDF91BB
:100B3000CF91FF90EF90DF90CF9008958230910594
:100B400038F0880F991F880F991F05970197F1F7C3
:100B50000895789484B5826084BD84B5816084BD35
:100B600085B5826085BD85B5816085BDEEE6F0E026
:100B7000808181608083E1E8F0E010828081826082
:100B80008083808181608083E0E8F0E08081816003
:100B90008083E1EBF0E0808184608083E0EBF0E033
:100BA000808181608083EAE7F0E0808184608083D7
:100BB0008081826080838081816080838081806881
:100BC00080831092C10008958E3008F08E50877097
:100BD0002091140190E4299F90011124822B80938D
:100BE0007C0080917A00806480937A0080917A0002
:100BF00086FDFCCF809178002091790090E0922BC7
:100C00000895833081F028F4813099F08230A1F08A
:100C100008958730A9F08830B9F08430D1F48091FC
:100C200080008F7D03C0809180008F77809380004B
:100C3000089584B58F7702C084B58F7D84BD0895F3
:100C40008091B0008F7703C08091B0008F7D80933A
:100C5000B0000895CF93DF9390E0FC01E458FF4F7C
:100C60002491FC01E057FF4F8491882349F190E0E3
:100C7000880F991FFC01E255FF4FA591B4918C5547
:100C80009F4FFC01C591D4919FB7611108C0F894A2
:100C90008C91209582238C93888182230AC06230B4
:100CA00051F4F8948C91322F309583238C93888162
:100CB000822B888304C0F8948C91822B8C939FBFE5
:100CC000DF91CF9108950F931F93CF93DF931F92DE
:100CD000CDB7DEB7282F30E0F901E859FF4F8491F6
:100CE000F901E458FF4F1491F901E057FF4F0491C7
:100CF0000023C9F0882321F069830E9401066981DD
:100D0000E02FF0E0EE0FFF1FEC55FF4FA591B491DF
:100D10009FB7F8948C91611103C01095812301C095
:100D2000812B8C939FBF0F90DF91CF911F910F91DB
:100D30000895CF92DF92EF92FF920F931F93CF937C
:100D4000DF937C016A01EB0100E010E00C151D054A
:100D500071F06991D701ED91FC910190F081E02D46
:100D6000C7010995892B19F00F5F1F4FEFCFC801FD
:100D7000DF91CF911F910F91FF90EF90DF90CF9077
:100D800008956115710581F0DB010D900020E9F7F0
:100D9000AD0141505109461B570BDC01ED91FC910F
:100DA0000280F381E02D099480E090E00895DC0159
:100DB000ED91FC910190F081E02D09948F929F922A
:100DC000AF92BF92CF92DF92EF92FF920F931F9359
:100DD000CF93DF93CDB7DEB7A1970FB6F894DEBF00
:100DE0000FBECDBF7C01C42EE52FCB01D22E19A2A0
:100DF00021E02D1510F02AE0D22E8E010F5D1F4F3D
:100E00008D2C912CA12CB12C6C2D7E2FA501940141
:100E10000E94FD078C2DD29E8019112401501109CA
:100E20008A3014F4805D01C0895CF801808321154B
:100E300031054105510521F0C22EE32FCA01E4CF4F
:100E4000B801C7010E94C106A1960FB6F894DEBF93
:100E50000FBECDBFDF91CF911F910F91FF90EF900B
:100E6000DF90CF90BF90AF909F908F900895CF92DA
:100E7000DF92EF92FF920F931F93CF93DF93EC01DA
:100E80006A017B012115310579F4E881F98101902E
:100E9000F081E02D642FDF91CF911F910F91FF9092
:100EA000EF90DF90CF9009942A303105E9F477FF75
:100EB0001AC06DE20E94D7068C0144275527BA015B
:100EC0004C195D096E097F092AE0CE010E94DE06F9
:100ED000800F911FDF91CF911F910F91FF90EF90A5
:100EE000DF90CF9008952AE0B701A601CE01DF91EF
:100EF000CF911F910F91FF90EF90DF90CF900C94C6
:100F0000DE069A01AB01662757FD6095762F0C949B
:100F100037074F925F926F927F92AF92BF92CF92BC
:100F2000DF92EF92FF920F931F93CF93DF93CDB792
:100F3000DEB729013A01621B730B840B950B2989DB
:100F40003A894B895C892A193B094C095D09298B2F
:100F50003A8B4B8B5C8B9B01AC0169897A898B89BD
:100F60009C890E94E107E418F50806091709A80101
:100F700097010E941F082A0D3B1D4C1D5D1DCA01D3
:100F8000B901DF91CF911F910F91FF90EF90DF900A
:100F9000CF90BF90AF907F906F905F904F900895EB
:100FA00008950E94A9050E94D0070E948700C0E012
:100FB000D0E00E94B6002097E1F30E940000F9CF34
:100FC0000895DB018F939F930E943E08BF91AF91DC
:100FD000A29F800D911DA39F900DB29F900D112493
:100FE0000895991B79E004C0991F961708F0961B85
:100FF000881F7A95C9F780950895A1E21A2EAA1B39
:10100000BB1BFD010DC0AA1FBB1FEE1FFF1FA217B8
:10101000B307E407F50720F0A21BB30BE40BF50BB5
:10102000661F771F881F991F1A9469F7609570953E
:10103000809590959B01AC01BD01CF010895052ECF
:1010400097FB1EF400940E94360857FD07D00E94BB
:10105000FD0707FC03D04EF40C94360850954095DC
:10106000309521953F4F4F4F5F4F08959095809554
:10107000709561957F4F8F4F9F4F08950E944F0845
:10108000A59F900DB49F900DA49F800D911D1124DC
:101090000895EE0FFF1F0590F491E02D0994A29F93
:1010A000B001B39FC001A39F700D811D1124911D3C
:1010B000B29F700D811D1124911D0895F894FFCFEA
:1010C000010000005A005A005A005A000E000F009A
:0E10D000100011000100000000030599060049
:00000001FF
